:1008000000000420BD0C0000574E0100514E0100B5
:10081000490D0000490D0000490D000000000000D6
:1008200000000000000000000000000001190100AD
:10083000490D000000000000D1190100351A010027
:10084000610D0000650D0000690D00006D0D0000D8
:10085000710D0000750D0000790D00007D0D000088
:10086000810D0000850D0000890D00008D0D000038
:10087000910D0000950D0000990D00009D0D0000E8
:10088000A10D0000490D0000490D0000490D0000B8
:10089000B5670000C3670000D1670000DF67000094
:1008A000ED670000FB6700000968000017680000A2
:1008B000C50D0000C90D0000CD0D0000D10D0000D8
:1008C000D50D0000D90D0000DD0D0000E10D000088
:1008D000E50D0000E90D0000ED0D0000F10D000038
:1008E000F50D0000F90D0000FD0D0000010E0000E7
:1008F000050E0000090E00000D0E0000110E000094
:10090000150E0000190E0000490D0000490D0000F1
:10091000490D0000490D0000490D0000490D00007F
:1009200085970100490D0000490D0000490D0000A8
:10093000490D0000796E0100490D0000490D0000CD
:10094000490D0000490D0000490D0000490D00004F
:10095000490D0000490D0000490D0000490D00003F
:10096000490D0000490D0000490D00001D0E00005A
:10097000210E0000250E0000290E00002D0E0000A3
:10098000310E0000350E0000390E0000490D000048
:10099000490D0000490D0000490D0000490D0000FF
:1009A000490D0000490D0000490D0000490D0000EF
:1009B000490D00008D6E0100490D0000490D000039
:1009C000490D00003D0E0000490D0000490D0000DA
:1009D000490D0000490D0000396E01004D6E010007
:1009E000490D0000516E0100656E0100490D0000C7
:1009F000490D0000490D0000410E0000450E0000A9
:100A0000490D0000490D0000490D0000490D00008E
:100A1000490D0000490D0000754E01003D630100C5
:100A200099300000490D0000490D0000490D0000FB
:100A3000490D0000490D0000490D0000490D00005E
:100A4000490D0000490D0000490E00004D0E000048
:100A5000490D0000510E0000550E00000DDF010091
:100A6000398A0100590E00005D0E0000610E000081
:100A7000650E0000690E00006D0E0000490D0000BB
:100A8000490D0000490D0000490D0000490D00000E
:100A9000490D0000490D0000490D0000490D0000FE
:100AA000490D0000490D0000490D0000490D0000EE
:100AB000490D0000490D0000490D0000490D0000DE
:100AC000490D0000490D0000490D0000490D0000CE
:100AD000490D0000490D0000490D0000490D0000BE
:100AE000490D0000490D0000490D0000490D0000AE
:100AF000490D0000490D0000490D0000490D00009E
:100B0000490D0000490D0000490D0000490D00008D
:100B1000490D0000490D0000490D0000490D00007D
:100B2000490D0000490D0000490D0000490D00006D
:100B3000490D0000490D0000490D0000490D00005D
:100B4000490D0000490D0000490D0000490D00004D
:100B5000490D0000490D0000490D0000490D00003D
:100B6000710E0000750E0000790E00007D0E000071
:100B7000490D0000490D0000490D0000490D00001D
:100B8000490D0000490D0000810E0000850E000097
:100B9000890E00008D0E0000490D0000490D000077
:100BA000910E0000950E0000414E0100414E0100E3
:100BB000414E0100414E0100414E0100414E0100F5
:100BC000414E0100414E0100414E0100414E0100E5
:100BD000414E0100414E0100414E0100414E0100D5
:100BE000414E0100414E0100414E0100414E0100C5
:100BF000414E0100414E0100414E0100FFFFFFFF49
:100C000010B5054C237833B9044B13B10448AFF346
:100C100000800123237010BDA0AE00200000000062
:100C2000BC5C030008B5034B1BB103490348AFF399
:100C3000008008BD00000000A4AE0020BC5C0300E2
:100C4000A3F5803A704700BF174B002B08BF134B2A
:100C50009D46FFF7F5FF00218B460F461348144AC7
:100C6000121A27F06FF90E4B002B00D098470D4B4E
:100C7000002B00D098470020002104000D000D48F3
:100C8000002802D00C48AFF3008027F0EDF82000D8
:100C9000290014F02DFE26F089FE00BF0000080098
:100CA000000000000000000000000420A0AC0020B4
:100CB00020820220000000000000000072B61648EA
:100CC000164901600A6882F308881548804715496B
:100CD000154A164B9A42BEBF51F8040B42F8040B5A
:100CE000F8E7134A134B9A42BEBF51F8040B42F87F
:100CF000040BF8E7104B00209A42BCBF42F8040BEB
:100D0000FAE70E490E4A00209142BCBF41F8040B9D
:100D1000FAE762B60B48804708ED00E000080000E3
:100D200035320000F05D0300008000209CAC002004
:100D3000000000200000002078400020A0AC00202F
:100D400020820220490C000014F07AB85248004773
:100D5000524800475248004752480047524800470F
:100D600052480047524800475248004752480047FF
:100D700052480047524800475248004752480047EF
:100D800052480047524800475248004752480047DF
:100D900052480047524800475248004752480047CF
:100DA00052480047524800475248004752480047BF
:100DB00052480047524800475248004752480047AF
:100DC000524800475248004752480047524800479F
:100DD000524800475248004752480047524800478F
:100DE000524800475248004752480047524800477F
:100DF000524800475248004752480047524800476F
:100E0000524800475248004752480047524800475E
:100E1000524800475248004752480047524800474E
:100E2000524800475248004752480047524800473E
:100E3000524800475248004752480047524800472E
:100E4000524800475248004752480047524800471E
:100E5000524800475248004752480047524800470E
:100E600052480047524800475248004752480047FE
:100E700052480047524800475248004752480047EE
:100E800052480047524800475248004752480047DE
:100E90005248004752480047574E0100514E01004A
:100EA00001190100D1190100351A0100A9840000BF
:100EB000E18400001985000051850000898500004B
:100EC000C1850000F98500003186000069860000B8
:100ED000A1860000D9860000118700004987000024
:100EE00081870000B9870000F1870000490D0000EC
:100EF000B1A00000D1A00000F1A0000011A10000ED
:100F000031A1000051A1000071A1000091A10000D9
:100F1000B1A10000D1A10000F1A1000011A20000C8
:100F20009D9B0000A99B0000B59B0000C19B000099
:100F3000CD9B0000D99B0000059C0000399C00005F
:100F40006D9C0000A19C0000D59C0000099D000044
:100F5000490D0000490D0000490D0000490D000039
:100F6000490D0000490D0000490D0000490D000029
:100F7000490D0000490D0000490D0000490D000019
:100F8000490D0000490D0000490D0000490D000009
:100F9000490D0000B1900000490D0000490D00000E
:100FA000490D00008589000099890000C189000071
:100FB000D5890000AD890000E9890000490D0000D5
:100FC000490D0000C5A20000490D0000490D0000B8
:100FD000490D0000490D0000490D0000490D0000B9
:100FE000490D000081F0004102E000BF83F00043A2
:100FF00030B54FEA41044FEA430594EA050F08BFB4
:1010000090EA020F1FBF54EA000C55EA020C7FEA77
:10101000645C7FEA655C00F0E2804FEA5454D4EBF4
:101020005555B8BF6D420CDD2C4480EA020281EABE
:10103000030382EA000083EA010180EA020281EAF6
:101040000303362D88BF30BD11F0004F4FEA013148
:101050004FF4801C4CEA113102D0404261EB410157
:1010600013F0004F4FEA03334CEA133302D05242DD
:1010700063EB430394EA050F00F0A780A4F1010499
:10108000D5F1200E0DDB02FA0EFC22FA05F28018D3
:1010900041F1000103FA0EF2801843FA05F35941B9
:1010A0000EE0A5F120050EF1200E012A03FA0EFC38
:1010B00028BF4CF0020C43FA05F3C01851EBE37162
:1010C00001F0004507D54FF0000EDCF1000C7EEB7F
:1010D00000006EEB0101B1F5801F1BD3B1F5001FBD
:1010E0000CD349085FEA30004FEA3C0C04F10104DC
:1010F0004FEA445212F5800F80F09A80BCF1004F05
:1011000008BF5FEA500C50F1000041EB045141EA86
:10111000050130BD5FEA4C0C404141EB0101013C4F
:1011200028BFB1F5801FE9D291F0000F04BF01463E
:101130000020B1FA81F308BF2033A3F10B03B3F110
:1011400020020CDA0C3208DD02F1140CC2F10C02A0
:1011500001FA0CF021FA02F10CE002F11402D8BFFE
:10116000C2F1200C01FA02F120FA0CFCDCBF41EACA
:101170000C019040E41AA2BF01EB0451294330BD99
:101180006FEA04041F3C1CDA0C340EDC04F1140476
:10119000C4F1200220FA04F001FA02F340EA03004D
:1011A00021FA04F345EA030130BDC4F10C04C4F193
:1011B000200220FA02F001FA04F340EA0300294673
:1011C00030BD21FA04F0294630BD94F0000F83F4BD
:1011D000801306BF81F480110134013D4EE77FEAA0
:1011E000645C18BF7FEA655C29D094EA050F08BFEC
:1011F00090EA020F05D054EA000C04BF19461046CD
:1012000030BD91EA030F1EBF0021002030BD5FEA10
:10121000545C05D14000494128BF41F0004130BD38
:1012200014F580043CBF01F5801130BD01F000458C
:1012300045F0FE4141F470014FF0000030BD7FEAFF
:10124000645C1ABF194610467FEA655C1CBF0B46FA
:10125000024650EA013406BF52EA033591EA030F11
:1012600041F4002130BD00BF90F0000F04BF002109
:10127000704730B54FF4806404F132044FF000053C
:101280004FF0000150E700BF90F0000F04BF0021B5
:10129000704730B54FF4806404F1320410F000451B
:1012A00048BF40424FF000013EE700BF42004FEA16
:1012B000E2014FEA31014FEA02701FBF12F07F4393
:1012C00093F07F4F81F06051704732F07F4208BF4A
:1012D000704793F07F4F04BF41F40021704730B551
:1012E0004FF4607401F0004521F000411CE700BF9D
:1012F00050EA010208BF704730B54FF000050AE020
:1013000050EA010208BF704730B511F0004502D520
:10131000404261EB41014FF4806404F132045FEA22
:10132000915C3FF4D8AE4FF003025FEADC0C18BFCB
:1013300003325FEADC0C18BF033202EBDC02C2F1BD
:10134000200300FA03FC20FA02F001FA03FE40EA4F
:101350000E0021FA02F11444BDE600BF53B94AB9A8
:10136000002908BF00281CBF4FF0FF314FF0FF30AD
:1013700000F0BCB9ADF1080C6DE904CE00F054F8F2
:10138000DDF804E0DDE9022304B07047430803F010
:101390005533C01A830803F0333300F03330184458
:1013A00000EB101000F00F3000EB002000EB0040CD
:1013B000000E704708B502460B4643EC172BB5EEFE
:1013C000C07BF1EE10FA03D4BDE8084000F00CB881
:1013D000B1EE477B51EC170B00F006F8404261EB91
:1013E000410108BD000000009FED0B6B41EC170BA5
:1013F0009FED0B5B27EE066BBCEEC66BB8EE464B63
:10140000A4EE457BFCEEC77B16EE101A17EE900A91
:10141000704700BFAFF30080000000000000F03D07
:10142000000000000000F0412DE9F047089D04464F
:101430008C46002B40F083808A42174647D9B2FA87
:1014400082F242B1C2F1200024FA00F091409740AC
:1014500040EA010C94404FEA1748230CBCFBF8F615
:101460001FFA87FE08FB16C143EA014306FB0EF193
:10147000994209D9FB1806F1FF3080F01981994291
:1014800040F21681023E3B445B1AA4B2B3FBF8F073
:1014900008FB103344EA034400FB0EFEA64509D9BD
:1014A0003C1900F1FF3380F00581A64540F202812E
:1014B00002383C4440EA0640A4EB0E0400261DB16D
:1014C000D4400023C5E900433146BDE8F08702B9A6
:1014D000FFDEB2FA82F2002A50D1CB1B4FEA174E40
:1014E0001FFA87F80126B3FBFEFC210C0EFB1C3310
:1014F00041EA034108FB0CF38B4207D979180CF140
:10150000FF3002D28B4200F2E9808446C91AA3B2AE
:10151000B1FBFEF00EFB101143EA014408FB00F89A
:10152000A04507D93C1900F1FF3302D2A04500F2D3
:10153000D9801846A4EB080440EA0C40BFE78B4270
:1015400009D9002D00F0B1800026C5E90001304620
:101550003146BDE8F087B3FA83F6002E4AD18B42BC
:1015600002D3824200F2B880841A61EB03010120A9
:101570008C46002DA8D0C5E9004CA5E7C2F1200398
:1015800020FA03F6974001FA02F04FEA174ED940CD
:101590003043030CB1FBFEF61FFA87F80EFB161161
:1015A00043EA014306FB08F1994204FA02F409D91F
:1015B000FB1806F1FF3C80F08D80994240F28A8052
:1015C000023E3B445B1A81B2B3FBFEF00EFB1033CC
:1015D00041EA034100FB08F38B4207D9791800F177
:1015E000FF3C73D28B4271D902383944CB1A40EA9E
:1015F000064678E7C6F1200C03FA06F422FA0CF34B
:101600001C4320FA0CF701FA06F34FEA144E21FAB4
:101610000CF11F433B0CB1FBFEF91FFA84F80EFBE3
:10162000191143EA014109FB08FA8A4502FA06F258
:1016300000FA06F308D9611809F1FF3048D28A454B
:1016400046D9A9F102092144A1EB0A01BFB2B1FBBD
:10165000FEF00EFB101147EA014700FB08F8B84501
:1016600007D9E71900F1FF312ED2B8452CD902383D
:10167000274440EA0940A7EB0807A0FB02894F4531
:10168000C64649461AD317D05DB1B3EB0E0267EBDD
:10169000010707FA0CFCF2404CEA0202F740C5E9E8
:1016A000002700263146BDE8F0872E4628460BE786
:1016B0000646E9E61846FDE64345E5D2B8EB020EDC
:1016C00069EB04010138DFE70846D2E760468DE7A1
:1016D0008146B9E7664675E730464AE7ACF1020C49
:1016E000394413E702383C4424E700BF704700BF89
:1016F00001F0FF01102A2BDB10F0070F08D010F8C3
:10170000013B013A8B422DD010F0070F42B3F6D1C6
:10171000F0B441EA012141EA014122F007047FF0DF
:1017200000070023F0E80256083C85EA010586EA36
:10173000010685FA47F5A3FA87F586FA47F6A5FA72
:1017400087F68EB9EED1F0BC01F0FF0102F007027E
:1017500032B110F8013B013A83EA010313B1F8D129
:101760000020704701387047002D06BF354603380A
:10177000073815F0010F07D1013015F4807F02BF43
:10178000013015F4C03F0130F0BC0138704700BF94
:1017900010F8012B11F8013B012A28BF9A42F7D01B
:1017A000D01A7047034613F8012B002AFBD1181AF0
:1017B000013870470022C0E9002282607047002291
:1017C000C0E90022826070470022C0E900228260E6
:1017D00070470120704703681B6A184703685B6AFB
:1017E00018472029F0B511D0D0F8B44100232425A2
:1017F00000F118069C4209D005FB03F2B7588F424E
:1018000002D104321044F0BD0133F3E70020FAE7BF
:101810007047704710B504464FF4FE7125F0CBF8C1
:10182000204610BDD0F8F4210C2A38B50DD800F5AB
:10183000DC7400239A420CD014F8015B8D4206D16F
:1018400000EB8300D0F8C40138BD26F051F8013315
:10185000F0E70020F8E7F8B505460F4606460024F5
:10186000D5F8B431A34210D9B369202B02D001348A
:101870002436F5E73946F069FFF78AFF0028F6D1EC
:10188000242000FB04500430F8BD0020FCE70000D9
:10189000F8B54FF47A7446000025094F6143B1FB57
:1018A000F4F439780020013581F00101397013F02A
:1018B00033FD204611F076FEAE42F2D1F8BD00BFF6
:1018C000C8C2002070B50D4E3378BFF35B8F13F0A4
:1018D000010410D1304625F072F860B1084D304651
:1018E000084B85F8544F2B6025F075F8064A2846BA
:1018F000064925F059F8024870BD00BF08AF002026
:101900000CAF0020381503000080002013180000E1
:101910000368C01A03888B428CBF405A002070476E
:1019200010B506210446FFF7F3FF10B12318205825
:10193000184410BD254B022213B518680023806897
:10194000194627F0E1F94FF4FA710320FFF7A0FFE1
:101950001F4827F057F9012010F060FC1D4B18605C
:1019600038B91D4827F04EF964210220FFF790FF97
:10197000FAE7012010F052FC184B186038B91848EB
:1019800027F040F964210220FFF782FFFAE7FFF712
:1019900099FF012118F024FE0024FFF793FF012195
:1019A00018F006FE0F4827F02DF9022340F68C228E
:1019B0000D490E48CDE90034234611F0A5FC204620
:1019C00002B0BDE8104012F0B7B800BFC8AA0020AE
:1019D00070C30200C0C20020A6C3020064BE002083
:1019E000C3C30200DFC30200F9C30200711F00007D
:1019F00008B4F0B50E461146044682B0C81D00AFCB
:101A000020F0070007F11C03ADEB000D53F8042B89
:101A10006D463B602846B04704F108030F2805EBEC
:101A200000062360786007D90022391D204625F082
:101A300067F97B682060A36032462946206825F05C
:101A4000D5F97B6822680021204608376360D154AD
:101A5000BD46BDE8F04001B070470000B7EEC00AD7
:101A6000054B3A2213B5044604498DED000BFFF7F0
:101A7000BFFF204602B010BD07C40200759F0200E0
:101A800010B50446006808B124F093FF204610BD4D
:101A9000D0F8B4310B2B2DE9F041054688461446A9
:101AA0000BD9D0F8F80110B90120BDE8F0810A4641
:101AB0000C23134934F050F9F6E703685B6A984742
:101AC000064640B1D5F8F8010028EDD042460D4950
:101AD00034F042F9E8E7D5F8B47124207B1C00FB10
:101AE0000757C5F8B4313D1D0FCC0FC50FCC0FC53E
:101AF000236830462B602023C7E90638D5E700BFAE
:101B00000AC402004CC4020070B505460C464CB134
:101B1000E1682846FFF7F8FFA668204624F049FF51
:101B20003446F4E770BD10B50446806B30B183686D
:101B3000013B836013B90368DB68984704F1080030
:101B40002169FFF7E1FF204610BD000020292DE9A3
:101B5000F843054688461446994609D1D0F8F8015D
:101B600010B90120BDE8F883204934F0F5F8F8E712
:101B700003681B6A9847074640B1D5F8F80100286A
:101B8000EFD042461A4934F0E7F8EAE7D5F8B4C195
:101B9000BCF10B0F09D9D5F8F8010028E1D00C23CE
:101BA0004246144934F0D8F8DBE74FF0240E0EFB20
:101BB0000C5E0FCC0EF104060FC60FCC0FC62368C7
:101BC0003846D5F8F42133600CF10103CEF81880C3
:101BD000C5F8B431AB1883F8B88105EB8203013244
:101BE000C3F8C491C5F8F421BCE700BF98C4020053
:101BF000DDC402002CC502000A68002302604A68A6
:101C00000B6042608A68C1E901338260704730B579
:101C10000D688368D0E9004205604D6845608D68B5
:101C200085608B60C1E9004230BD1FB500230C46C2
:101C3000CDE901330393FFF7EAFF214601A8FFF73F
:101C4000E6FF01A8FFF71CFF04B010BD2DE9F04F1F
:101C50009946531E4FF00C0B85B003EBD37305462A
:101C6000884616464FEA630A0C465B46A2451BDDD2
:101C7000671C7F007A1E0BFB07F168580BFB02F113
:101C8000695890ED017A03FB0450D1ED017AB4EE6E
:101C9000677AF1EE10FAC8BF174603FB07513C46BE
:101CA000FFF7C3FF0C23E1E7F30710D4023E06EB76
:101CB000D676B4EB660F0AD161000C204E1C01FBF6
:101CC000000100FB045034462944FFF7AEFF661EB6
:101CD0000C27494601A806EBD676FFF78DFF761054
:101CE000A04507FB045015DA07FB06F3E918EB588B
:101CF00093ED017A019BD3ED017AB4EEE77AF1EE30
:101D000010FA07DDFFF791FF731E344603EBD37320
:101D10005E10E5E701A9FFF788FF01A8FFF7B0FE15
:101D200005B0BDE8F08F000070B5054688B00C46E0
:101D30001646114602A8641BFFF75EFF294630468F
:101D4000FFF773FF0A4AA41002A905A86243019293
:101D5000FFF752FF05AB019A00212846FFF776FFF7
:101D600005A8FFF78DFE02A8FFF78AFE08B070BD38
:101D7000ABAAAAAA1FB50446014601A8FFF73CFF7B
:101D80002046019A0C3C50F80C3C92ED017AD3EDC0
:101D9000017AB4EEE77AF1EE10FA03DD2146FFF79F
:101DA00044FFEDE701A9FFF740FF01A8FFF768FE38
:101DB00004B010BD88422DE9F043054685B00F46BA
:101DC00033D000F10C04DFF86880A7422DD02646FE
:101DD0002B6856F80C2BD3ED017A92ED017AB4EE14
:101DE000E77AF1EE10FA1CDD2146641BB14601A82A
:101DF000A410FFF701FF08FB04F4002C08DDA9F193
:101E00001801A9F10C09013C4846FFF70EFFF4E761
:101E1000284601A9FFF709FF01A8FFF731FE344664
:101E2000D3E72046FFF7A6FFF9E705B0BDE8F0834A
:101E3000ABAAAAAA2DE9F04F4FF00C0B89B00446CB
:101E4000174698460D46DFF824A100EB0B092E1B20
:101E5000C02E40F38880B6100AFB06F647BBB71EBB
:101E60004FF00C087F1008FB074102A8FFF7C4FEE3
:101E700002A905A8FFF7C0FE204605AB3246394649
:101E8000FFF7E4FE05A8FFF7FBFD67B902A8FFF71F
:101E9000F7FD2B1B0C3D0C2B65DD2A462946204601
:101EA000FFF742FFF5E702A8013FFFF7E9FDDAE798
:101EB0007610E368013F0BFB06F6D3ED016AA359E8
:101EC000A11993ED017A55F80C3CF4EEC76AD3EDF5
:101ED000017AF1EE10FA32DDB4EEE77AF1EE10FAA3
:101EE00025DD20464E46FFF792FE29462368D3EDB6
:101EF000017A336893ED017AB4EEE77AF1EE10FAE5
:101F00002FDCA1F10C0319460C3B0A6892ED017A13
:101F1000F4EEC77AF1EE10FAF5DC8E421CD32946B6
:101F200043463A4630463546FFF784FF8FE7F4EEE6
:101F3000E76AF1EE10FA07DDA5F10C01D1E7F4EE46
:101F4000E76AF1EE10FA01DD4946CAE7B4EEE77A36
:101F5000F1EE10FAC5DDEFE730460191FFF757FECD
:101F600001990C36C2E709B0BDE8F08FABAAAAAA66
:101F70002DE98048ADF56B7D11F0FCF90023109040
:101F80001FA98F482193CDE91F3313F0F9F80446B8
:101F900030B98B498B4826F035FE204611F0CCFD38
:101FA0001F9C23681C442046FFF7BAFCD0B10026D2
:101FB000854D2046FFF7B4FC03689E4212D20430E0
:101FC0000A2100EB860750F826301F443846FFF7F9
:101FD0009FFC00B13858C2B231462846013626F07F
:101FE00011FEE6E7794C2378BFF35B8FDB070ED455
:101FF000204624F0E4FC50B1754818F015FD204649
:1020000024F0E9FC734A7449714824F0CDFC0222A3
:102010006F491DA819F034FD1D9C2CB96F4826F09E
:10202000F1FD204611F088FD19AD6D4B00243EA84E
:102030002B606C4BD8946B93CDE9E84433F078FE79
:10204000694B3EAA06216BA8FFF780FD33F0B0FE76
:10205000664902466BA8FFF71BFD3EA833F074FEED
:10206000634B3EAA22216BA8FFF770FD3EA833F018
:1020700057FE604B3EAA03216BA8FFF767FD3EA801
:1020800033F082FE5C4B3EAA04216BA8FFF75EFD95
:102090003EA833F06DFE594B3EAA17216BA8FFF7FF
:1020A00055FD3EA833F08CFE554B3EAA11216BA87E
:1020B000FFF74CFD3EA833F03FFE514B3EAA0121F5
:1020C0006BA8FFF743FD3EA833F05AFE4D4B3EAAE6
:1020D00009216BA8FFF73AFD3EA833F0FDFD4A4BFE
:1020E0003EAA12216BA8FFF731FD3EA833F038FE5F
:1020F000464B3EAA21466BA8FFF728FD19F07AFF50
:10210000434902466BA8FFF7C3FC1F994FF4000335
:102110006BAA0868009301443E4B3EA80195CDE9A7
:10212000024433F0F9FD3EA833F032FE28B13A48BC
:1021300026F068FD204611F0FFFC3E9C0821204659
:10214000FFF7E6FB002800F05485211822588B1871
:102150008A5832B9314B40F20111314A314825F0E9
:10216000CFFB1C1D5B6806211C442046FFF7D0FBFB
:10217000002800F03E8522182358D358012B05D0A3
:10218000294826F03FFD002011F0D6FC00213EA892
:1021900033F0F2FD836825499A68DD68244B0A9084
:1021A00000201D6055430A6017F0F2FA45430C20E9
:1021B00024F014FC0446002D3EDA1E4824F0DCFC1A
:1021C00062C902006FC502008AC50200BCAE0020D1
:1021D000C0AE002000800020271B0000AEC502001A
:1021E000846E252024C9020051B52420D5C50200E3
:1021F00055B5242035B62420C9B6242065B5242041
:1022000063B8242069B7242019B82420D5B5242028
:1022100050C9020000000081F2C5020014C602008D
:102220001FC6020019C702005FC7020068BE002077
:10223000C4C200208EC702004FF00003C0E9003383
:102240008360284601D024F0C9FB46192060A660AF
:102250001DB12A46002125F075FE604B0021666005
:102260003EA81C6033F080FD01210C903EA8B6EE24
:10227000009A33F079FD0C9B90ED03AA00269B6831
:1022800089EE0A0A0D90DB68554F13938368DB686B
:1022900011930A9B93ED038A1D690C9BD3ED039A5E
:1022A000D3ED04AA03690E9325F0F0FA0E9B1844AF
:1022B00080F308044B48E3B2149326F0A3FC0A9B76
:1022C0009A681368B34207DD02EB8602384601368E
:1022D000516826F097FCF2E7B7EECA7A0E9B4248A7
:1022E00008930994CDED04AA00958DED067BB7EE19
:1022F000E97A8DED027BB7EEC87A53EC172B26F006
:1023000081FC11F037F801211290084613F004F80F
:10231000364B4FF0FF31186810F074F9012804466D
:1023200040F04882202200212EA82C4F25F00AFEE2
:102330002F4BD3F800902F4BD3F800803B681D68DB
:10234000FFF7C0FA8DF8D44003232EAC3495CDF8B6
:10235000C880064636ADCDE930390FCC0FC594E8BC
:102360000F0085E80F0000232020CDE928332A93B1
:1023700024F034FB0DF1D80C00F1200E0446289017
:10238000CDF8A8E0CDF8A4E0BCE80F000FC495E8B4
:102390000F0084E80F0028A9304617F0A5FE044678
:1023A000289808B124F005FB2CB9134826F02AFC24
:1023B000129B1093A5E70021012012F0ADFF3B68AE
:1023C000D3E900120A9B521A586825F093FD3EA8E3
:1023D00033F0FAFCA0B10948E8E700BF6CBE00206A
:1023E000CCC70200BFC70200D0C70200C0C2002095
:1023F00068BE0020C4C2002033C8020060C80200CA
:102400000D9B0646804605465B68044607461593C5
:102410000C9BD3F804900923B7FBF3F303EBC3033E
:10242000FB1A1693159B33440F9300230B930B9BBE
:10243000119A934200F08D810F9A12F8013B0F928E
:10244000149A934240F2318144F24F639F4200F26A
:102450002F81B7F5615F34BF00210121D74BF8EE22
:10246000EA6A0DF1D80B53F82100D54BB7FBF0F217
:1024700003EB810300FB1272D3ED007A0923B2FB58
:10248000F3F308EE903ACF4BF8EEE88A03EB8103C2
:1024900068EEA78AE7EE898AD3ED007ACA4B53F833
:1024A000213001EBC101FB1AB3FBF0F308EE103A47
:1024B000169B1944C54BB8EE488A03EB8103D3ED54
:1024C00000BA28EE278AC24B03EB810199F801304C
:1024D000A7EE898A07EE103A99F8003091ED00BA1C
:1024E00007EE903A99F80330B8EE477A00EE103ACA
:1024F000F8EE677A99F80230B8EE400A37EE667A5D
:102500000CEE103A77EEE67A30EE660A27EE297A7C
:1025100067EEA97A20EE290AB8EE4CCAE7EE2B8ABC
:10252000B7EEC00AA7EE8B8A3CEE66CA24F058FFCD
:10253000B7EEEB7A2CEE29CA27EE000BF7EEC0BB04
:10254000B7EECC0A24F04CFFF0EE686AB7EECB7A17
:1025500028AB1AAA36A8EBEEC96A1BA927EE000B16
:102560004FF0000CCDF8D8C0F7EE007AB0EE487A04
:10257000CDED1A6AEBEE898AF4EEE76ACDED287AA2
:10258000B7EEC00BF1EE10FAA0EE497AA0EE098A80
:10259000CDED1C8AC8BF1A46D2ED006AF5EE406A3E
:1025A0008DED1B7A8DED228AF1EE10FAB4EEE77A0A
:1025B00048BF0246F1EE10FA106836AAD8BF0B46A3
:1025C000002193ED007AB5EE407AF1EE10FAF4EEC8
:1025D000E78A48BF134636AAF1EE10FAD3F800C0D6
:1025E00036914FF00001CCBF28AB1CAB93ED007AC5
:1025F000B5EE407A9DED0B7AB8EE477AF1EE10FA1F
:10260000B4EEE78A48BF13460E9AF1EE10FAD3F8FB
:1026100000E0CDED287ACCBF28AB22AB3691D3EDCC
:10262000007AF5EE407AF1EE10FA48BF5B46196881
:102630000F9B13F8013C399018209B1ACDF8ECE061
:102640008DED367A07EE903A0023CDF8E0C0F8EE33
:10265000E77A2A933A9167EE8A7ACDE92833CDED6D
:10266000377A24F0BBF95B4600F1180E02460DF1F3
:10267000F00B2890CDF8A8E09C460832BCE8030097
:10268000DC4542F8080C42F8041C6346F4D1A84526
:10269000CDF8A4E013D02846A2460C3528A9FFF7B0
:1026A000ABFA544628A8FFF7EBF90B9B0133BDE6C4
:1026B00044F6D3118F4294BF02210321CEE6A8EB4A
:1026C0000408444B4FEAA80B03FB0BFB424B9B4512
:1026D00001D1424872E55A46012A38BF01221BEB5C
:1026E000020B80F08482BBF1000F09D09B4528BF0C
:1026F0009B460C2000FB0BF024F070F9824600E0B2
:10270000DA4628A90AEB0800FFF776FAD0462146F8
:10271000A9420CD040461791FFF76EFA179908F1BD
:102720000C080846FFF7ACF917990C31F0E70D1BC0
:102730002B4BAD085D4325F0404514B1204624F0F5
:1027400038F94FF00C0805FB088508FB0BA8554429
:10275000A7E7119B01371E44139B994444F6B52308
:102760009F427FF458AE00231E481A46194600685F
:102770000FF038FCA5423BD02E1B164A29462046B6
:10278000B3105A434FF00003B2FA82F2C2F11F02B3
:102790005200FFF74FFBC02E26DD04F1C006204695
:1027A0003146FFF707FBAE4222D030460C36FFF72A
:1027B000E1FAF8E700252C46DCE700BF90C90200EB
:1027C000C0CA0200C0CA020080C90200A0C902003B
:1027D00030CA0200ABAAAAAAAAAAAA0A7AC8020008
:1027E000ABAAAA2AC0C2002029462046FFF7E2FA77
:1027F0000023DFF83091DFED498A2E1BB61009FB6C
:1028000006F69E4240F2908003F101080C279FEDEE
:10281000448A5F43C2462B1B9B1009FB03F39A4576
:1028200071D2E359D3ED023A93ED033A93ED046A82
:10283000D3ED055A0C2303FB0AF3E018E35893ED9C
:10284000034AD3ED024AB4EEC43AD3ED057A93EDD0
:10285000045AF1EE10FAF4EEE43A54BFB0EE432A13
:10286000B0EE442AF1EE10FAF4EEE75A54BFF0EE5F
:10287000632AF0EE642AF1EE10FAB4EEC56A37FE70
:10288000A57A37EE427AF1EE10FA77EEC47AB5EE19
:10289000C07A75FE066A35EE645A76EEE26AF1EEAB
:1028A00010FA75EEC35AF5EEC06A36EE636A37FE6B
:1028B000087A67EE857AF1EE10FAE5EE867A76FE12
:1028C000886A27EE267A77EEC77AF5EEC07AF1EEBF
:1028D00010FA20DDC7EE276AF4EEE86AF1EE10FA8E
:1028E00019DD00F10C06AE420FD0AE1BB61009FB8D
:1028F00006F6002E00F10C0B07DD5946013EFFF7EE
:1029000094F95846F5E7434677E70C3D0AF1FF3A5C
:102910002846FFF7B5F80AF1010A7CE79A99993E33
:1029200000000000ABAAAAAA129B052E109A274607
:10293000B14928BF0526981AB04B10224FF0000865
:1029400000902EA8FFF754F8AD4A00212EA824F0DD
:10295000C9FB014636A8DFF8E4B224F08DFAA94994
:1029600036A8DFF8949224F0F9FB014622A8DFF89C
:10297000D0A224F081FA36A824F0E4F92EA824F09D
:10298000E1F9A14922A824F0FFFBB04500F0EA805C
:102990003B681022494628A8D3ED007A5B46FDEE3D
:1029A000E77ACDED007AFFF723F85246002128A8F8
:1029B00024F098FB01462EA824F05EFA91492EA837
:1029C00024F0CCFB014636A824F056FA36A922A8FA
:1029D00024F0C0FB36A824F0B5F92EA824F0B2F9F3
:1029E00028A824F0AFF93B6828A893ED010AFFF767
:1029F00035F8864A002128A824F074FB01462EA849
:102A000024F03AFA7F492EA824F0A8FB014636A804
:102A100024F032FA36A922A824F09CFB36A824F030
:102A200091F92EA824F08EF928A824F08BF93B68A0
:102A300028A893ED030AFFF711F8754A002128A88A
:102A400024F050FB01462EA824F016FA6D492EA85A
:102A500024F084FB014636A824F00EFA36A922A8F9
:102A600024F078FB36A824F06DF92EA824F06AF93A
:102A700028A824F067F93B6828A893ED020AFEF71E
:102A8000EDFF644A002128A824F02CFB01462EA863
:102A900024F0F2F95B492EA824F060FB014636A829
:102AA00024F0EAF936A922A824F054FB36A824F031
:102AB00049F92EA824F046F928A824F043F93B68E8
:102AC00028A893ED050AFEF7C9FF534A002128A85C
:102AD00024F008FB01462EA824F0CEF949492EA87F
:102AE00024F03CFB014636A824F0C6F936A922A8FA
:102AF00024F030FB36A824F025F92EA824F022F982
:102B000028A824F01FF93B6828A893ED040AFEF7D3
:102B1000A5FF424A002128A824F0E4FA01462EA885
:102B200024F0AAF93E492EA824F018FB014636A845
:102B300024F0A2F936A922A824F00CFB36A824F030
:102B400001F92EA824F0FEF828A824F0FBF8731E43
:102B5000434503D02B4922A824F016FB08F10108B5
:102B60000C3712E72F4922A824F00EFB239A40F2DB
:102B70004D439A420DD92C48264626F043F822A808
:102B800024F0E0F8AE422AD030460C36FEF778FF4B
:102B9000F8E7264E4FF0FF3130680FF033FD012883
:102BA00009D12299224826F03DFA002330681A46BE
:102BB00019460FF017FA1E4926461E4826F022F83D
:102BC0001D4B1B68986824F0C7FF22A824F0BAF8B0
:102BD000AE4204D030460C36FEF752FFF8E7002C28
:102BE0003FF4E6AB204623F0E4FEFFF7E1BB9B4653
:102BF0007FE50368FFDE00BF759F020094C80200F6
:102C000098C80200A3C80200A6C80200BDC80200FE
:102C1000C7C80200D0C80200D9C80200E2C802003A
:102C2000ECC80200EBC80200EEC8020064BE00203F
:102C300070BE0020ADEF0200C8AA0020B2C802009A
:102C4000B5C8020010B5044640F6587123F0B3FE33
:102C5000204610BD13B5019012F004F8044618B1D7
:102C6000019A002125F06EF9204602B010BD11F046
:102C7000FBBFEFF305835BB1EFF311834FF020024D
:102C800082F31188BFF36F8FBFF34F8F03607047DC
:102C90000EF048BEEFF3058313B180F3118870473F
:102CA0000EF06EBE10B5044630B9084B40F2ED117F
:102CB000074A084824F024FE04200FF0AFFA10B1B0
:102CC0002060002010BD43F2DD70FBE738CB02002E
:102CD00084CB0200E3CA020008B530B90B4B40F2C6
:102CE0000A210B4A0B4824F00BFE4B1C00681EBF48
:102CF0004FF47A735943B1FBF3F10FF071FD0028E3
:102D000043F2DE7018BF002008BD00BF38CB0200C0
:102D100094CB0200E3CA020008B530B9074B40F279
:102D20002A21074A074824F0EBFD00680FF04CFA0F
:102D3000002843F2DD7018BF002008BD38CB020028
:102D4000A2CB0200E3CA020008B530B9054B4FF42C
:102D50001071054A054824F0D3FD00680FF0B6FD58
:102D6000002008BD38CB0200B2CB0200E3CA02004B
:102D700038B50D46044630B9084B4FF41471084A73
:102D8000084824F0BDFD0EF0C7FB206010B1002004
:102D9000257138BD43F2DD70FBE700BF4CCB02006C
:102DA000C3CB0200E3CA020037B50025019530B954
:102DB000144B40F26A21144A144824F0A1FD006823
:102DC000E8B1EFF30584B4B101AA0EF0EFFC0128DD
:102DD00004D00F4B4FF41E710B4AEDE7019840B140
:102DE0000C4B4FF080521A60BFF34F8FBFF36F8FC1
:102DF000284603B030BD0EF04FFC2046F9E743F201
:102E0000DD70F6E74CCB0200D3CB0200E3CA020030
:102E100060CB020004ED00E073B5069D30B9114BA4
:102E200040F2E121104A114824F06AFD066821F0C1
:102E30007F449EB101793046009313460A1E214615
:102E400018BF01220EF076FB204005B12860002853
:102E500043F2DE7018BF002002B070BD43F2DD7097
:102E6000FAE700BF4CCB0200E0CB0200E3CA02004D
:102E700008B530B9074B40F21731074A074824F02C
:102E80003FFD006818B10EF063FC002008BD43F25E
:102E9000DD70FBE74CCB0200EECB0200E3CA020080
:102EA00010B504460846114634B9084B40F22D319E
:102EB000074A084824F024FD00220FF013F810B14F
:102EC0002060002010BD43F2DD70FBE771CB0200F3
:102ED000FFCB0200E3CA020013B530B9144B40F235
:102EE0004931144A144824F00BFD00240068019471
:102EF000EFF305839BB1234601AA0FF0A1F9012846
:102F000012D1019B13B9002002B010BD0B4B4FF042
:102F100080521A60BFF34F8FBFF36F8FF3E71A46EB
:102F20000FF060F80128EED043F2DD70ECE700BF4F
:102F300071CB02000ECC0200E3CA020004ED00E0F7
:102F400008B530B90B4B40F271310B4A0B4824F0F5
:102F5000D7FC531C00681EBF4FF47A735A43B2FB70
:102F6000F3F20FF08FFA012843F2DE7008BF002061
:102F700008BD00BF71CB02001ACC0200E3CA0200F8
:102F800008B530B9054B40F2A131054A054824F097
:102F9000B7FC00680FF09AFC002008BD71CB02005E
:102FA00026CC0200E3CA020007B5186C01A99A6397
:102FB0000FF0DEF9019B3BB1054B4FF080521A60D8
:102FC000BFF34F8FBFF36F8F03B05DF804FB00BFFB
:102FD00004ED00E02DE9F0410D4616461F4604467B
:102FE00030B329B34422002124F0ACFF04200FF0B9
:102FF00015F9E06348B10322002101200EF072FFB1
:10300000206420B9E06B0FF061FC01200EE0A046C7
:103010003A463146284648F8045B06F047FB284606
:103020002346044A414606F0C7FB0020BDE8F08174
:103030000420FBE7A92F00004FF0FF31C06B0FF019
:10304000CFBBC06B0FF0C0B837B504460191FFF796
:10305000F3FF012813D1019A211D206806F0E8FB37
:10306000054628B12046FFF7ECFF284603B030BDE7
:103070004FF0FF31206C0FF0C5FAA56BF2E74FF46B
:103080006175F2E70123024A1370024A93607047A8
:10309000D0C2002000000F40FFF7F4BF2DE9F84335
:1030A0002C4B1C68844228BF044604B32A4E2B4D87
:1030B0003368DFF8B49023F00103D9F8008033605F
:1030C0002B6823F001032B6072B6BFF34F8FBFF361
:1030D0006F8F10F08DFF224F58B9AB686B602B6873
:1030E00043F001032B603B68013B6B6062B6BDE8B7
:1030F000F883013C08FB04F33361336843F00103B8
:103100003360BFF34F8F30BFBFF36F8F154B00227B
:103110001A7062B600BF1978B1B11A700E4A0F4D1D
:10312000136823F0010313600EF0FCFB2B682046AC
:1031300043F001032B6010F017FC3B68013B6B6010
:10314000BDE8F8430EF01CBC746AD9F80000B4FB6B
:10315000F0F4E3E7D8C2002000000F4010E000E0E8
:10316000D4C20020D0C20020CCC200200C4B64226C
:103170001A6002220B4B1A606FF000420A4B1A6071
:103180000A4B4FF08072DA60002243F8F02C43F8CB
:10319000E82C632243F8EC2C032243F8F02C704710
:1031A000D4C20020CCC20020D8C2002000E100E040
:1031B0000B1E10DD00F01F011944BFF34F8F064AAC
:1031C0000144C2F85C0220300B1A002BF9DCBFF37B
:1031D0004F8FBFF36F8F704700ED00E00B1E10DDC7
:1031E00000F01F011944BFF34F8F064A0144C2F893
:1031F000680220300B1A002BF9DCBFF34F8FBFF3AE
:103200006F8F704700ED00E00B1E10DD00F01F0116
:103210001944BFF34F8F064A0144C2F870022030B0
:103220000B1A002BF9DCBFF34F8FBFF36F8F704782
:1032300000ED00E03C4A08B5D2F8883043F4700352
:10324000C2F88830394A1388580705D5138823F007
:1032500004031B041B0C1380354A1388590705D53A
:10326000138823F004031B041B0C1380314B1A68D2
:1032700092044CD5304A5A604FF6FF729A601A6831
:1032800022F0A00242F020021A602C4B1A6890042F
:1032900043D5294A5A604FF6FF729A601A6822F0A5
:1032A000A00242F020021A60254B1A68D10703D50C
:1032B0001A6822F001021A601B4B5A69920315D456
:1032C0005A6912F4003211D1BFF34F8FBFF36F8FE1
:1032D000C3F85022BFF34F8FBFF36F8F5A6942F488
:1032E00000325A61BFF34F8FBFF36F8F154A136FD0
:1032F00023F4005313670C4A536943F010035361DE
:10330000BFF34F8FBFF36F8F00F04AF808BD4CF248
:1033100020525A604DF62812ADE74CF220525A6006
:103320004DF62812B6E700BF00ED00E000000340B4
:10333000004003400080034020C528D90000C14060
:1033400010E000E000400E4010B5C4010E4A04F148
:10335000814402EBC00004F598042368C3F3022300
:10336000C05C04F0BDFB23680246DBB201339A4225
:10337000B0FBF3F006D2054B40F6C501044A054800
:1033800024F0BEFA10BD00BFBECC020036CC020055
:10339000A7CC02003BCC0200004870479CC3002031
:1033A00008B511F0C3FC08BD10B592B00420FFF7BA
:1033B000CBFF14220446002101A824F0C3FD3022D3
:1033C000002106A824F0BEFD01A807F047FB012359
:1033D00001A919488DF8043007F068FB04234FF069
:1033E000004216498DF818304FF480331248CDE969
:1033F000072303F10133124A03F102230993114B0E
:10340000B2FBF4F2CDE90A131E2300218DF830300F
:10341000A023534306AA0D9341F68463CDE90F33ED
:1034200040F20123ADF84430234607F0FDFBB0FA2B
:1034300080F0400912B010BD00400D401212780F0C
:1034400000CA9A3B2A2A463C7FB5684603F086FCB0
:10345000074B694607480093074B0193074B0293BC
:10346000074B039303F0C0FD07B05DF804FB00BFFA
:10347000DCC20020000044400CC300203CC30020FC
:103480006CC3002010B5E4B04FF49E72002115AC5F
:10349000204624F057FD1420FFF756FF4FF4003369
:1034A00030212060A3600223009402A8E38140F24F
:1034B000033323820C23E3744FF40063C4E909331C
:1034C0004023E3622023C4E90D13074C019405F067
:1034D000BFFB02A9204605F001FB0449684602F043
:1034E0006FFA64B010BD00BF00C00C409CC3002048
:1034F00038B5044611F02AFC02F0DEF800F056FB65
:1035000001F0A8FD0CB101F099FDFFF74DFF10B9D6
:103510000B4825F077FB0B4D0B4C0C480C4A641BF9
:103520000C49121A24F0E6FC22460021284624F019
:1035300009FDFFF789FFBDE83840FFF7A3BF00BFD3
:1035400089CC020000000081406886810000008173
:10355000000000818C8A03004B78C0018A781B022E
:10356000013A03F4E063D2B213430A78002A0CBF95
:1035700000224FF080721343034A1350BFF34F8F62
:10358000BFF36F8F704700BF0000CC402DE9F743B9
:10359000EC4C00232046ADF804308DF8063004F0E2
:1035A000DBFEE94BE94AD3F800199142224640F08C
:1035B000D882D3F81039DBB20B2B40F0D28263698A
:1035C00023F000536361636823F4F85343F4B0536A
:1035D0006360A368002BFCDADB4BDD4ED3F8703858
:1035E000DB48DA06C3F300114ABF0022012211466C
:1035F00006F024FF0121304606F09EFE01213046F0
:1036000006F0E0FE022004F011FAD6F8C03043F0D4
:103610000203C6F8C03004F0EDFA336D43F0020344
:103620003365336943F002033361336943F08073D8
:103630003361336A43F010033362336A5B00FCD5B5
:103640000024012501A9022720468DF805408DF8A8
:103650000650FFF781FF01A908208DF805404FF0C3
:1036600006088DF80650FFF777FFBA484FF01809A3
:1036700003F0B8FEB84804F07FF9B84803F028FF1B
:1036800021461B22022003F0B5FF13222946022007
:1036900003F0B0FF02211822084603F0ABFF2022FE
:1036A0000321022003F0A6FF04F050F821460D226A
:1036B000032003F09FFF11222946032003F09AFF05
:1036C00020220221032003F095FF03211622084641
:1036D00003F090FFD6F81032A14823F00803C6F893
:1036E0001032042604F0C6F82946052004F07EF8BE
:1036F00004F01CF920460DEB06018DF805608DF8ED
:103700000650FFF729FF0DEB060138468DF80560DE
:103710008DF80670FFF720FF03230DEB06013046FE
:103720008DF805808DF80630FFF716FF0DEB0601CA
:1037300005208DF805408DF80650FFF70DFF072393
:103740000DEB060140468DF806608DF80530FFF759
:1037500003FFF0230DEB060108208DF805408DF8DE
:103760000630FFF7F9FE0DEB06010E208DF805403F
:103770008DF80650FFF7F0FE0DEB06010F208DF8D7
:1037800005408DF80690FFF7E7FE0DEB06011020CF
:103790008DF805408DF80690FFF7DEFE0DEB060173
:1037A00011208DF805408DF80650FFF7D5FE0DEB82
:1037B000060112208DF805408DF80650FFF7CCFE6B
:1037C0000DEB060113208DF805408DF80650FFF72C
:1037D000C3FE0DEB060119208DF805408DF806504B
:1037E000FFF7BAFE0DEB06011A208DF805408DF8A3
:1037F0000650FFF7B1FE0DEB06011B208DF80540CA
:103800008DF80650FFF7A8FE0DEB06011C208DF881
:1038100005408DF80650FFF79FFE0DEB06011D20B9
:103820008DF805408DF80650FFF796FE0DEB06016A
:103830001E208DF805408DF80650FFF78DFE0DEB2C
:1038400006011F208DF805408DF80650FFF784FE15
:103850000DEB060120208DF805408DF80650FFF78E
:103860007BFE0DEB060121208DF805408DF80650FA
:10387000FFF772FE0DEB060122208DF805408DF852
:103880000650FFF769FE0DEB060123208DF8054079
:103890008DF80650FFF760FE0DEB060124208DF831
:1038A00005408DF80650FFF757FE0DEB0601252069
:1038B0008DF805408DF80650FFF74EFE0DEB060122
:1038C00026208DF805408DF80650FFF745FE0DEBDC
:1038D000060127208DF805408DF80650FFF73CFEC5
:1038E0000DEB060128208DF805408DF80650FFF7F6
:1038F00033FE0DEB060129208DF805408DF80650AA
:10390000FFF72AFE0DEB06012A208DF805408DF801
:103910000650FFF721FE0DEB06012B208DF8054028
:103920008DF80650FFF718FE0DEB06012C208DF8E0
:1039300005408DF80650FFF70FFE0DEB06012D2018
:1039400010E000BF0080CA4000C0CA406959AC57AF
:103950000040C84050CF0200E4D10200F0D1020084
:1039600058CF02008DF805408DF80650FFF7F4FDA2
:103970000DEB06012E208DF805408DF80650FFF75F
:10398000EBFD0DEB06012F208DF805408DF806505C
:10399000FFF7E2FD0DEB060130208DF805408DF8B4
:1039A0000650FFF7D9FD0DEB060134208DF80560B8
:1039B0008DF80660FFF7D0FD0DEB060135208DF880
:1039C00005408DF80650FFF7C7FD0DEB06013620C8
:1039D0008DF805408DF80650FFF7BEFD0DEB060192
:1039E00037208DF805408DF80650FFF7B5FD0DEB3B
:1039F000060138208DF805408DF80650FFF7ACFD24
:103A00000DEB060139208DF805408DF80650FFF7C3
:103A1000A3FD0DEB06013A208DF805408DF8065008
:103A2000FFF79AFD0DEB06013D208DF805408DF85E
:103A30000650FFF791FD0DEB06013E208DF8058045
:103A40008DF80670FFF788FD0DEB060140208DF81C
:103A500005408DF80650FFF77FFD0DEB0601412074
:103A60008DF805408DF80650FFF776FD0DEB060149
:103A700042208DF805408DF80650FFF76DFD0DEBE7
:103A8000060143208DF805408DF80650FFF764FDD0
:103A90000DEB06014C208DF805408DF80650FFF720
:103AA0005BFD3A4B3A4C1A6822F007021A601A681A
:103AB00022F0380242EA09021A601A6822F0C002B3
:103AC0001A605A6822F003025A609A6822F00302D0
:103AD0009A60DA6822F49F6222F00702DA601A69BB
:103AE00022F002021A615A6922F0050232435A6139
:103AF0005A6922F002025A619A6922F002029A611E
:103B00009A6922F001029A619A6D22F001029A6587
:103B1000DA6D22F00102DA651A6E22F001021A66ED
:103B20005A6E22F001025A669A6E22F001029A66DB
:103B3000DA6E22F00102DA662368164AC3F3022322
:103B4000D05C03F0CDFF2368DBB22B449842B0FB7E
:103B5000F3F215D2104B40F6C501104A104823F07D
:103B6000CFFE536923F000535361536823F4F85395
:103B700043F4A85353600B4A9368002BFCDA2BE5FF
:103B8000094B1A6003B0BDE8F08300BF00400E404F
:103B90000000CC406CCF020036CC020036CF0200D1
:103BA0003BCC02000080CA4004800020FFF7EEBC3E
:103BB000104642B100231373536833B11B6823B11D
:103BC0000A4602211847032070470120704710461B
:103BD00042B100235373536833B11B6823B10A46C3
:103BE0000121184703207047012070472DE9F04359
:103BF000044687B018B9012007B0BDE8F083837B85
:103C0000002BF8D04268926851799942F3D303F1BE
:103C1000005312680C2740F6024C013B02EBC3062E
:103C200012F8335000239D42E5D907FB03F2706878
:103C30008118825A62453BD10D7A00239D422DD8CE
:103C40000026CB782374002ED5D000250120DFF884
:103C500070802F46DFF86C90A6603379AB42CBD9E9
:103C60000623B2688DF808706B43D118D25C8DF8CA
:103C70000620D2094B88ADF804304B788DF8073018
:103C800018D0022B02D12773CDF80C9003AA01A9FA
:103C900020680135049408F033F8DEE71A0148681B
:103CA00000EB0316805CE27B9042CAD00133C5E78B
:103CB0000133B8E7022B04BF6773CDF80C80E5E74A
:103CC000CF3B0000B13B0000836870B5044693B160
:103CD000002501200626A3681A79954202D3002305
:103CE000A36070BD9A6806FB05F320680135D15CBE
:103CF00008F025F8EFE70120F3E7000070B50A4C63
:103D00000E46154623685BB9214601F00FFD30B918
:103D100023683BB14FF47F436660E3812C6070BD44
:103D20000220FCE70320FAE70000002010B504465B
:103D300030B1FFF7C9FF0023C4E90033E38110BDB0
:103D40000320FCE77FB504461546002A60D0002812
:103D50005ED0CBB2013B032B54D8DFE803F01E0248
:103D6000064000238373012414E04368002BFAD03B
:103D70002A78837B9A42F6D0FFF7A6FF2B7820465D
:103D8000A3730023E373FFF731FF044610B121480A
:103D900007F022FD204604B070BD2B68227C197903
:103DA00098889142DFD12E1DADF808005888009602
:103DB00005F10806ADF80A00287B01968DF80C0085
:103DC0005B78222B07D163686A460B2120461B686B
:103DD00098470446DEE7104807F0FEFCC3E7436857
:103DE000002BC0D02D88037CB3EB152FBBD1EDB2D7
:103DF000C37BAB42B7D0FFF767FF2046E573FFF701
:103E0000F5FEE6E70A460548054907F0E5FCAAE79E
:103E10000324BFE7FCD1020016D2020048D2020000
:103E20005BD2020038B5044648B1057B4DB901208C
:103E30002073206807F050FF00B1257338BD0320C0
:103E4000FCE70220FAE738B5044648B1457B4DB996
:103E500001206073206807F045FF00B1657338BD2D
:103E60000320FCE70220FAE72DE9F04390F89430B4
:103E700087B004461BB9012007B0BDE8F083426853
:103E8000926851799942F6D31268002AF3D003F16F
:103E900000530C27013B02EBC30612F833500023FA
:103EA0009D42E8D907FB03F270688118825C082AFA
:103EB0002CD10D7A00239D421DD80027CB7884F8A1
:103EC0009530002FD7D000260120DFF88C803546B2
:103ED000DFF88890A7603B79B34219D80123E560E9
:103EE000C4F88450C4F8883084F88C5084F88F501B
:103EF00084F89650C0E71A01486800EB0317805C0D
:103F000094F893209042D9D00133D4E70133C7E726
:103F10000623B9688DF8085073430136CA18107922
:103F20008DF80900CB5C20688DF806305188ADF81B
:103F3000041001A9527804948DF80720DA0903AA25
:103F400015BF84F8913084F89230CDF80C90CDF8FC
:103F50000C8007F0D5FEBEE76D450000B1430000C0
:103F6000836870B5044693B1002501200626A36836
:103F70001A79954202D30023A36070BD9A6806FBAC
:103F800005F320680135D15C07F0D9FEEFE7012089
:103F9000F3E70000F8B5214C0F4616462568002DC2
:103FA0003AD104F198032146A36104F1B803E36117
:103FB00004F1C803236204F1DC03E36304F1E403C6
:103FC000236404F1F003236501F0B0FB30B184F801
:103FD000945084F89350C4E90055F8BD236833B970
:103FE000606084F8940084F893000320F5E7FF23D1
:103FF000702284F8940084F89330236A60616760CB
:104000001A700A229870DA711873587384F88D0048
:1040100084F88E003460E0E70220DEE71400002020
:1040200010B5044648B1FFF79BFF0023C4E90033F5
:1040300084F8943084F8933010BD0320FCE7F0B589
:1040400004468FB01646002A00F06F81002800F069
:104050006C81C9B20139052900F26B81DFE811F0EA
:1040600034010600430067008C00BC00002301AA55
:10407000052180F8943043681B689847019B0546EA
:10408000002B00F05481013B01AE4FF0010C04F114
:10409000440E84F89030B3681BB373680BB3331DC0
:1040A0000EEB0C170FCB87E80F0094F890205FFA07
:1040B0008CF39A4205D30CF1010C1036BCF1040FBD
:1040C000E9D1226A702313700A23D37100239370FD
:1040D0001373537384F88D3084F88E3028460FB0F4
:1040E000F0BD0125E1E74368002B00F0228190F844
:1040F000943012789A4200F005810BB1FFF730FF3F
:104100003378204684F89430002384F89330FFF706
:10411000ABFE05460028E1D11F23A26994F8921056
:10412000206807F0DFFD012384F88D30D6E743686F
:10413000002B00F0FE80168890F89530B3EB162F18
:1041400040F0F780F6B290F89330B34200F0DA8096
:10415000FFF706FF2046FFF787FE054648B91F23F5
:10416000A26994F89210206807F0BCFD012384F83E
:104170008D3084F89360B1E74368002B00F0D9805C
:104180008368002B00F0D58090F886307BB91178D9
:1041900090F891200120914207D184F8860084F89C
:1041A0008E302068317807F001FE054600E00125D9
:1041B00094F88730002B91D1317894F89220914275
:1041C0008CD1012284F88D30206884F887203178E2
:1041D00007F0ECFD054681E74368002B00F0A9805D
:1041E0008368002B00F0A58090F88950012D3FF4E2
:1041F00075AF90F88650012D40D1127890F891302B
:104200009A4209D1002380F8863080F88E30006809
:10421000317807F0DCFD054694F88730012B0ED18C
:10422000327894F892309A4209D10023206884F8B9
:10423000873084F88D30317807F0C9FD054694F851
:104240008F30023B012B29D894F88A30012B17D1EB
:10425000B4F88630002B7FF441AF94F88D202068AD
:10426000012A94F8921084F88A3025D184F88D3090
:1042700007F03CFD002384F88F302FE70125CBE7C2
:1042800094F88E302068012B94F891100CD184F8AA
:10429000963007F02BFD002384F88F3094F88A3095
:1042A000012B7FF41BAFD3E70D23E26907F014FD68
:1042B000012384F88E30EEE71F23A26907F012FD78
:1042C000012384F88D30D5E713681A7802F01F05B2
:1042D000012D2ED190F89500197988427FF4FEAE19
:1042E0005978FE2903D0FF290ED00525F6E6598816
:1042F0000029FAD1DB88012BF7D11206F5D59034CD
:10430000C6E901450025E9E659880029EDD1DB8899
:10431000002BEAD11306E8D440F20112A4F8885029
:1043200084F88A50A4F88620ECE70325D6E6042515
:10433000D4E60125D2E630B5036985B000250446F0
:104340000093836902955A7BC36800EB02118DF8D4
:104350000C20B3F5803F6A46C96D28BF4FF4803307
:104360008B4294BF01930191042143681B689847D5
:10437000A36922695B7B94F8911004EB03135B6DD6
:104380009A4206D22068DDE9013207F0A5FC05B0AB
:1043900030BD0123206884F88B5084F886300223D6
:1043A00084F8855084F88F3007F000FD2846EEE74A
:1043B0007FB54B6814460E465A1C2CD194F88530B4
:1043C000A3B163681D688DB1A269D37B03F07F033D
:1043D000282B0BD10023096820460291012101936B
:1043E0000093537B6A468DF80C30A84794F896509A
:1043F000012D03D00125284604B070BD0023E269D9
:1044000094F8911084F896300D23206807F064FC2E
:10441000A4F88E50EFE7E26894F88B5093429CBF6B
:10442000D21AE260012D0CD1002394F8911020687B
:1044300084F88B3084F8865084F8853007F0B6FC19
:10444000D9E794F88520BAB90D2BD3D10B68196838
:10445000264B9942CED1012584F88E201F23A269D4
:1044600094F89210206884F8885007F03BFC84F898
:104470008D50C0E701252AE062681568002DB9D08B
:1044800001933368029323690093A3695A7B8DF8E3
:104490000C20DB7B03F07F03282B03D16A4601212C
:1044A0002046A847E368002BE4D0A36920465A7B46
:1044B000736804EB0212926DB3FBF2F223691344AA
:1044C0002361FFF738FFE3680546002B93D10023F3
:1044D000E26994F8911084F885300123206884F80B
:1044E0008E300D2307F0F8FB85E700BF555342538C
:1044F00030B5036985B000250446009383690295B1
:104500005A7BC36800EB02118DF80C20B3F5803F95
:104510006A46096E28BF4FF480338B4294BF0193E3
:104520000191032143681B689847A36922695B7B5B
:1045300094F8921004EB03135B6D9A4206D2206844
:10454000DDE9013207F0CEFB05B030BD0123206864
:1045500084F88C5084F88730022384F8845084F8DF
:104560008F3007F023FC2846EEE700007FB51446A5
:104570004A680E46531C2CD194F88430A3B163686A
:104580001D688DB1A269D37B03F07F032A2B0BD169
:104590000023096820460291022101930093537B76
:1045A0006A468DF80C30A84794F88D50002D40F0E5
:1045B000AB81B4F886304BB91F23A26994F89210EE
:1045C000206807F08FFB012384F88D30284604B063
:1045D00070BDE3689A429CBF9B1AE360A369DB7BD2
:1045E00003F0BF03152B06D163681B681BB10022C3
:1045F0000B212046984794F88C30012B0CD10025D4
:1046000094F89210206884F8873084F88450A4F8D5
:104610008C5007F0CBFBD9E794F88450002D37D0AD
:10462000736801933368029323690093A3695A7BEB
:104630008DF80C2062681568CDB1DB7B03F07F0339
:104640002A2B03D16A4602212046A847E5688DB18E
:10465000A36920465A7B736804EB0212926DB3FB88
:10466000F2F2236913442361FFF742FF0546E36832
:10467000002BABD1002384F884300D23E26994F839
:104680009110206807F028FB012384F88E309DE705
:1046900094F88830002B00F01E8173681F2B40F0C7
:1046A0001A81A369994A1968914240F014815E7B8E
:1046B00016F0F00F40F00F81997B11F0E00240F00E
:1046C0000A8194F890000130864280F0048101391B
:1046D0000F2900F20081E1698D4884F88D20E260A5
:1046E000086058688A60486084F8882093F90C0054
:1046F0009E680028197B02DB321E18BF01220028A9
:1047000084F8842008DA3EB1012094F8862084F8E9
:10471000850022B1054659E7002284F88520DB7B1D
:10472000032B04D0226A0020907010735073CA09C2
:104730002F2B666284F8392050D8112B0CD8032B0C
:1047400000F09480042B00F09D80002B00F09280FC
:10475000204600F039FC57E0123B1D2BF8D801A28F
:1047600052F823F003480000514700005147000071
:104770009548000051470000514700005147000094
:1047800051470000EB470000B548000051470000CA
:10479000A54800007D480000514700005147000037
:1047A00051470000514700009D480000514700005C
:1047B0008D48000051470000514700006548000047
:1047C00051470000FB4700005147000051470000DF
:1047D0005147000051470000AD4800009E2B55D0C6
:1047E00007D8552B56D05A2BB2D1204600F054FA98
:1047F0000AE0A82B36D0AA2BAAD1204600F0FCF95B
:1048000002E0204600F0AFF9236A05469B7843B1E9
:10481000E3691A7B2AB9A269D27B032A1CBF012251
:104820001A73052D0ED194F88430012B46D194F8DB
:1048300087200AB984F88C30002384F8843002235E
:1048400084F88F3094F88430002B7FF4BFAE94F856
:104850008530002B7FF4BAAE94F88B30002B7FF4B8
:10486000B5AE0AE7204600F0A2F9CDE7204600F0F9
:1048700059F9C9E7204600F0E4F9C5E7204600F001
:104880003CFBC1E7204600F019FBBDE7204600F0E5
:1048900053FAB9E7204600F023FAB5E7204600F0C6
:1048A00093FAB1E7204600F049FBADE7204600F05F
:1048B000E9F9A9E7204600F062FBA5E794F8853006
:1048C000012BBCD194F886200AB984F88B300023E0
:1048D00084F88530B3E794F89210206807F066FA00
:1048E00094F89110206807F061FA002384F88D3065
:1048F000012384F88F3040F20113A4F886304FF47E
:104900008073A4F8883061E600255FE65553424382
:104910005553425330B484690129647B00EB04147D
:10492000A56D5468126804FB05F40261C46002D1ED
:1049300030BCFFF700BD30BCFFF7DABDD0E909326B
:1049400070B504464BB9C1698B6012B910460A7341
:1049500070BD022218460A73FAE790F83910002950
:104960006ED0C56942B9AB60134694F89110E26A03
:10497000206807F0B1F90FE090F83A10002954D000
:10498000934290F8381013D99B1A0129AB60EBD1F0
:1049900000F13002FFF7BEFFE36908B918735CE06D
:1049A00001221A730322236A9A7011221A7354E0A7
:1049B0004FF00002AA6010D1012907D100F13002A6
:1049C000FFF7A8FFE36940BB1873C1E7C26A90F81C
:1049D0009110006807F080F9F4E7012916D1826987
:1049E000527B00EB0212966DB3FBF6F206FB12331C
:1049F000426300F13002AB60FFF78CFFE36960B9FE
:104A000094F83820012ADFD102220CE0C26A90F823
:104A10009110006807F060F9F0E701221A73032291
:104A2000236A9A7011221A7392E7C26AAB600B462E
:104A300090F89110006807F04FF9E3690222B5E79A
:104A40006AB990F89210006807F0B0F9636AE269F9
:104A500093600123137384F88730052078E790F87A
:104A60003A1059B190F89210006807F09FF9E36985
:104A7000626A9A6002221A730123ECE79342C569C5
:104A800090F8386019D99B1A012EAB600DD100F156
:104A90003002FFF73FFFE36900283FF47FAF0122B8
:104AA0001A730322236A9A7080E7134690F89210D3
:104AB000C26A006807F016F9EDE7A96016D1012E69
:104AC0000DD100F13002FFF725FFE36900283FF424
:104AD0007BAF01221A73236A03229A70A3E7C26A8A
:104AE00090F89210006807F0FDF8EEE7012E12D161
:104AF0008269527B00EB0212966DB3FBF6F206FB65
:104B00001233426300F13002AB60FFF703FF00286D
:104B1000E1D1E36974E7C26A90F89210006807F087
:104B2000E1F8F4E710B5036A86B00446049383699C
:104B300003F10F025B7B8DF81430436801921B6810
:104B400013B101AA0F21984712232046A362012323
:104B500084F83A30236AE362002384F83830FFF7A0
:104B6000EDFE06B010BD10B5036A86B0044604938E
:104B7000836903F10F025B7B8DF814304368019267
:104B800000221B68CDE9022213B101AA082198472F
:104B9000029B2046A362012384F83A30039BE36220
:104BA000002384F83830FFF7C9FE06B010BD8269D3
:104BB00010B4D37BD2F81110282B09BA15D1D38A9F
:104BC0005BBA9BB2012480F83A40527B00EB0212A0
:104BD000926D80F838405A435DF8044B826200229F
:104BE000C0E90C13C262FFF7A9BEA82B0ABFD2F816
:104BF000153000231BBAE5E7826910B4D37B00248B
:104C0000D2F811102A2B09BA14D1D38A5BBA9BB2FD
:104C100080F83A40527B00EB0212926D5A43C0E991
:104C20000A24012280F838205DF8044BC0E90C13F7
:104C3000FFF784BEAA2B0ABFD2F8153023461BBA51
:104C4000E6E730B5036A87B004460493836903F14D
:104C50000F025B7B019201228DF81430002380F853
:104C60003A208362C36280F83830FFF767FE6368DA
:104C700005461B681BB101AA072120469847284614
:104C800007B030BD00220121826280F83A10C26272
:104C900080F83820FFF752BE10B5036A86B004468C
:104CA0000493836903F10F025B7B8DF81430436832
:104CB000019200221B68CDE9022213B101AA092149
:104CC0009847029B2046A362012384F83A30039B55
:104CD000E362002384F83830FFF730FE06B010BDE1
:104CE00010B5036A86B004460493836903F10F028A
:104CF0005B7B8DF814304368019200221B68CDE97C
:104D0000022213B101AA0A219847029B2046039A66
:104D1000A3620023E26284F83A3084F83830FFF767
:104D20000DFEA3691B7CDB0704D5236A05229A705C
:104D300024221A7306B010BD836930B585B05D7B3F
:104D4000002304468DF80C50CDE9013343681B68FD
:104D500013B101AA1021984794F89030AB423FBF9D
:104D6000236A052200259A70029931B1019B13B381
:104D700004EB0515C5E915310821A069437BC07B0B
:104D80000533252804EB03135A68A16202F1FF32B0
:104D900012BA12D1E16B0A609B681BBA4B60012307
:104DA0002046E16284F83A30002384F83830FFF777
:104DB000C5FD05B030BD1946DFE7216C4A609B6830
:104DC0001BBA8B60EBE7000070B53B4B044688B024
:104DD0001868A36900905D7B0023CDE90533636803
:104DE0008DF81C501B681BB105AA1121204698475D
:104DF00094F89030AB423FBF236A052200259A7099
:104E0000069B2BB1059A1AB104EB0515C5E91523CC
:104E1000A36994F84C50997DDA7D42EA0121002D76
:104E200048D06269002A14BF022003205B7B002D5A
:104E30004FEAC00503F105038DF8035004EB03139B
:104E40005A689E6812BA33BA0392049314BF4FF0A3
:104E500000734FF0807301920C22334302EBC002C7
:104E60001BBA8A42029328BF0A46236D9DF80010A0
:104E700019709DF80110236D59709DF80210236D73
:104E8000997001A9236DDD70042311F8015B206D79
:104E9000C55401330C2BF8D101232046A26284F8BB
:104EA0003A30236DE362002384F83830FFF746FD83
:104EB00008B070BD2846B9E7F4C2020070B50025FD
:104EC00001260446856280F83A60C56280F8385051
:104ED000FFF734FDE3691A7B022A0DD0A269127C28
:104EE00002F01F02172A1DBF05221E73236A1D73BD
:104EF0001EBF9A7024221A7370BD30B5036A87B042
:104F000004460493836903F10F025B7B0192012243
:104F10008DF81430002380F83A208362C36280F851
:104F20003830FFF70BFD636805461B681BB101AA0B
:104F30000C2120469847284607B030BD30B5036A9B
:104F400087B004460493836903F10F025B7B0192EF
:104F500001228DF81430002380F83A208362C36266
:104F600080F83830FFF7EAFC636805461B681BB120
:104F700001AA0D2120469847284607B030BD30B51C
:104F8000036A87B004460493836903F10F025B7BD5
:104F9000019201228DF81430002380F83A208362B8
:104FA000C36280F83830FFF7C9FCE36905461B7B14
:104FB000022B06D063681B681BB101AA0E21204694
:104FC0009847284607B030BD10B4C16900220124BB
:104FD0008A600C730521036A8262997020215A73DA
:104FE00019735DF8044BFFF7A9BC000010B50E4C17
:104FF0000E4BD4F8002FC2F30222134493F8F000B2
:1050000002F06EFDD4F8003F0246DBB201339A4253
:10501000B0FBF3F006D2064B40F6C501054A064840
:1050200022F06EFC10BD00BF0000CC4053D3020044
:1050300036CC02002CD302003BCC020010B5FFF7A7
:10504000D5FF012203464FF4E1310620BDE81040B0
:1050500006F09EBA984B99495A69084612F4003FE7
:105060002DE9F041964D2E460ED0BFF34F8FBFF382
:105070006F8F5A6922F400325A610022C3F850221D
:10508000BFF34F8FBFF36F8F8B4A5369DB0324D578
:105090000023C2F88430BFF34F8F536923F4803369
:1050A0005361BFF34F8FD2F8803043F6E07CC3F3F7
:1050B000C907C3F34E335B0103EA0C083C4648EAD8
:1050C000847E013CC2F874E2F9D2203B13F1200F38
:1050D000F2D1BFF34F8FBFF36F8FBFF35F8F764A6D
:1050E000536A23F480335362764B5A6822F00102EC
:1050F0005A60BFF34F8FBFF36F8F1022724CDA608C
:10510000724A1A61724ADA60724A1A61DC601A6184
:105110001322714CDA60714A1A611422DA60704A03
:105120001A61DC601A616F4ADA606F4A1A616F4A6D
:10513000DA606F4A1A616F4ADA606F4A1A616F4A21
:10514000DA606F4A1A61002225FA02F4012C0CD8A9
:105150004AB36C4CB4FBF5F705FB17453DB16A4B00
:10516000B1216A4A6A4822F0CBFB0132ECE7012503
:105170009540B54203D0674BB221644AF2E7042A56
:1051800003D8654BB321614AECE7013A24F01F04D0
:10519000520044F01A0402F03E02DC6042F0427217
:1051A00042F001021A615D4A5D4CDA605D4A1A61A3
:1051B0005D4ADA605D4A1A615D4ADA605D4A1A61E9
:1051C000DC601A61002221FA02F4012C0AD82AB309
:1051D000594CB4FBF1F501FB154129B1574BD521D1
:1051E0004A4ABFE70132EEE701219140814203D0F4
:1051F000534BD621454AB5E7042A03D8464BD7215D
:10520000424AAFE7013A44F01F045200DC6002F06A
:105210003E0242F0447242F001021A61BFF35F8F16
:1052200005225A60244B5A6A42F480325A62BFF314
:105230004F8FBFF36F8F5A6912F4803223D1C3F8B6
:105240008420BFF34F8FD3F8802043F6E074C2F37D
:10525000C900C2F34E32520102EA0406014646EA90
:1052600081750139C3F86052F9D2203A12F1200F4A
:10527000F2D1BFF34F8F5A6942F480325A61BFF3C3
:105280004F8FBFF36F8F0C4B5A6912F4003211D15C
:10529000BFF34F8FBFF36F8FC3F85022BFF34F8F11
:1052A000BFF36F8F5A6942F400325A61BFF34F8FD8
:1052B000BFF36F8FBDE8F08100ED00E0002000003B
:1052C0000080000090ED00E0120000603F00100040
:1052D0001100008039001003150000203B0010036E
:1052E00023000303160020202700030317003020AB
:1052F00025000303180000302F000306190000806A
:10530000330003030000002071D2020043D30200E7
:1053100089D20200C1D20200DCD202001B00004090
:105320001E0080412F0010031C00004129001003C3
:105330001D0040412700100300002C20E3D2020092
:1053400007D30200C64A46F22063D158C9072DE9A7
:10535000F0410BD40121D150BFF34F8FBFF36F8FBA
:1053600002F5CC4230321368DB07FCD50A22BD4B74
:10537000052402251A60042143F8042C012043F877
:10538000082C4FF00C0C43F80C2C1527B64BB74EDD
:105390001C601D6443F8044CDD63B54BDFF80CE37F
:1053A0001960C3F8F0030023DFF804833360B14EC3
:1053B00037600327C6F840C0A6F50B26A6F6EC76A4
:1053C0003260C6F840C046F8200C376246F81C0C24
:1053D000C6F894307762A84E3060C6F8FC520E448E
:1053E0003060C6F8E4520E443060C6F8E4520E4411
:1053F0003060C6F8E4520E443060C6F8E4520E4401
:105400003060C6F8E4520E443060F83EC6F8FC0046
:10541000C6F80001C6F80401C6F80801C6F80C0178
:10542000C6F8E45335607560C6F8C403443E326084
:1054300072603266C6F84412C6F84812C6F8A45222
:105440001026CEF80060CEF87830CEF80460CEF8A2
:1054500074304FF0200EC8F800E0C8F804E0DFF820
:1054600054E2CEF80030CEF8B4348E44CEF800309A
:105470000EF5107ECEF86C32CEF80050CEF8045007
:10548000AEF5407ECEF80070CEF804700E27CEF850
:105490004472CEF848720EF58E7E784F3960A7F5CB
:1054A000BA77C7F87811C7F8B833C7F8BC332437D0
:1054B00047F8243C47F8203C47F81C3C47F8183C88
:1054C00047F8143C47F8103C47F80C3C47F8083CB8
:1054D00047F8043C3B607B60BB60FB603B617B61E9
:1054E000BB61FB613B627B62BB62FB623B637B63D4
:1054F000BB63FB6340373B607B60BB60FB603B6131
:105500007B61BB61FB613B627B62BB62FB623B63B5
:105510007B63BE63C7F88C301127CEF80070CEF8DD
:105520000470CEF8A8030EF1080ECEF80070CEF885
:1055300080038E44CEF80070CEF880038E44CEF8FF
:105540000070CEF880038E44CEF800704C4F386067
:105550004C484D4F0260A0F53D70C0F8F822C0F8ED
:10556000FC22C0F80023C0F80423C0F8082302601E
:1055700040F8342C40F8202C3C60444F396079606E
:10558000B960F96039617961B961F961396279624B
:1055900047F8041C47F8081C40F8202CC0F880602D
:1055A000C0F88460C0F88860C0F88C60C0F8906073
:1055B000C0F894608267C0F81421C0F81021344804
:1055C000046034480260C0F8B420C0F8B820122249
:1055D000C0F8A420C0F8A8201322C0F8AC20C0F85E
:1055E000B0202D4A1160903242F88CCC42F8881CD1
:1055F00042F8841C42F8801C42F87C1C42F8983C1B
:105600005360136002F53A0202F53C421560234AEA
:105610001360C2F8B4C0C2F8B8C0C2F8A430C2F86F
:10562000A830C2F8AC30C2F8B0301D4B1C6043F853
:105630000C4C1C4B1C605C6043F8684C43F8644C99
:1056400043F8D44C43F8D04C43F87C4C43F8804C9E
:10565000154B1C60DC601C615C61BDE8F08100BF23
:105660000000CC40F8800E401840C94058830E40DE
:1056700014810E400C40C940E4810E4084810E40EC
:1056800060850E4010840E402040C94044810E4089
:105690003040C94098810E40E0830E40DC830E40CC
:1056A0002480C0408C810E401C80C0401080C040CF
:1056B0005080C0406C810E40FFF744BE73B500249B
:1056C000064601A80D460194FDF7D3FA074B1A6868
:1056D000964206D101982B60FDF7DCFA204602B015
:1056E00070BD0198FDF7D6FA0420F8E728010020E4
:1056F00037B50024054601A80194FDF7BAFA0A4B14
:105700001A685AB19A7BAA4208D101989C73C3E9DE
:105710000044FDF7BFFA204603B030BD0198FDF705
:10572000B9FA0420F8E700BF2801002073B500246F
:10573000064601A80D460194FDF79BFA084A136836
:105740004BB1927BB24206D101982B60FDF7A2FAD1
:10575000204602B070BD0198FDF79CFA0420F8E7DE
:10576000280100202DE9F7430F46154622B90423EE
:10577000184603B0BDE8F08301A9FFF79FFF00289A
:10578000F5D1044601264FF00C08DFF85890019B34
:10579000E0B25B681A7A824201D83346E8E71B68B8
:1057A00008FB003083681B79012B15D0022B15D024
:1057B000032B15D0042B0DD1032309EB03132A4629
:1057C000394640689B68984705280346D0D0002892
:1057D00008BF00260134DAE70023EEE70123ECE7F7
:1057E0000223EAE7CCD5020073B50D4601A90446B1
:1057F0001646FFF763FF88B9012D08D101992046AD
:105800000BF0C4FD019A02212046FFF7ABFF019B7C
:105810003246294620465B685B68984702B070BDF7
:105820002DE9F74F07460C469046002A5DD0002927
:105830005BD04B68002B58D0002301A80193FDF7E3
:1058400018FA2B4B01981E681D461EB39B7BBB426A
:1058500020D10124FDF71EFA204603B0BDE8F08FE9
:10586000DFF89490AF73C5F80890FDF713FA6C60F9
:10587000A9F110021F49384606F0BAF9044678B972
:105880006B685FFA86F91B7A4B4510D82B68C8F80D
:105890000030E1E7002EE3D00224FDF7FBF9DBE75F
:1058A000286806F084F93846FFF722FFD4E70C2376
:1058B000DFF848A04FF0000B03FB09F96B6819688B
:1058C00049448B681A799AF80C309A4204D1DAF874
:1058D00000300A1D384698470BF1010B0AF1100AF7
:1058E000BBF1050FEAD10136CAE70424B4E700BFD3
:1058F00028010020E957000038010020CCD5020023
:1059000070B586B00B78012506468DF80C30022361
:105910000C4602928DF80D3040F201130595ADF85A
:105920000E3001AB049302A9304603F065FB58B971
:105930006388A18805FA03F3019A39B1934314BF30
:1059400001230023002BEED106B070BD1342F6E711
:1059500070B51E4686B00B7801250C4602A98DF85D
:105960000C30022302928DF80D3040F20913059598
:10597000ADF80E3001AB049303F03EFB38B9A368D9
:10598000019A1340E268934208BF0546357006B09D
:1059900070BD7FB500238DF80C1002A9CDE901334D
:1059A00003238DF80D304FF48673ADF80E3001AB44
:1059B00004930123059303F01FFB07B05DF804FB7C
:1059C000F8B50D46064628B9324B9121324A334884
:1059D00021F096FF19B9324B92212F4AF7E704685C
:1059E00004220021284622F0ADFA2E4B706804F103
:1059F0003C07218E28605980618EEB619980616B34
:105A000094F820209960A16B1A70D960214603F0A8
:105A1000ABF94FF480720021384622F093FA40F23D
:105A20000641214A214BE1662149DFF898E0C4F89C
:105A30008C104FF401517068C4E90F2342F2014306
:105A40001C4AC4E927E1C4E91323C4E933231A49F2
:105A50001A4AC4F8DC100331C4E91723184A4FF47A
:105A60000053C4F8BC100021C4E93F2340233A4648
:105A700003F0FCF973681A6842F001021A601868B2
:105A800010F00100FBD1636AAB60A36AEB60E36ACC
:105A90002B61F8BD00D702007AD602001CD60200A6
:105AA000F1D60200BCC300200304100C083080248F
:105AB000D80418080F04C004100418089F04000438
:105AC0001F04A0040204100C2DE9F04390468268E4
:105AD00087B0C66951431F46002396F800904D00D9
:105AE00004468DF80D304FF4847302A900680295C6
:105AF0008DF80C90ADF80E3003F07EFA10BB2A46FC
:105B000031462068FFF7FCFEE0B9022302A92068B5
:105B10008DF80D304FF4807302958DF80C90ADF830
:105B20000E30CDE9048703F067FA58B90DF1070389
:105B30002A4631462068FFF70BFF18B99DF8070089
:105B400080F0010007B0BDE8F0832DE9F0439146F5
:105B500087B0C66998460023044637788DF80D3023
:105B600040F203138DF80C70ADF80E30D0E9022529
:105B700000682A4401FB02F502A9029503F03CFAF1
:105B800080BB032302A920688DF80D304FF4837386
:105B900002958DF80C70ADF80E30CDE9049803F045
:105BA0002BFAF8B94FF485738DF80D0002A920681F
:105BB00002958DF80C70ADF80E3003F01DFA88B91F
:105BC0002A4631462068FFF79BFE58B90DF10703BE
:105BD0002A4631462068FFF7BBFE18B99DF807003A
:105BE00080F0010007B0BDE8F083F0B5836885B0B0
:105BF000C66904465943056937784D4300683946FC
:105C0000FFF7C7FE00236D0069468DF8053040F2AE
:105C10000313206800958DF80470ADF8063003F08A
:105C2000EBF990B940F205138DF80500694620683C
:105C300000958DF80470ADF8063003F0DDF920B959
:105C40002A4631462068FFF75BFE05B0F0BD10B56F
:105C5000EFF3108472B6438902890BB19A420ED0D9
:105C600052B901600023013248600B60416002813B
:105C7000184684F3108810BD43681960F2E743F2B8
:105C80007A70F6E7EFF3108172B660B103896BB1F9
:105C9000013B02689BB2038103B943600023536058
:105CA00013680360104681F3108870471846FAE7BE
:105CB0000068704710B50446C430FFF7F9FF50B1D3
:105CC000A378012B07D1C268816804F10C00BDE8FC
:105CD000104000F05FBB43F2215010BDF7B5054600
:105CE000FFF7E8FF002705F1D0063046FFF7E0FF99
:105CF0000446C4B9EFF3108272B66B6882F3108861
:105D00007BB19A686AB11869D968884209D3009250
:105D10009C601A69DC6901921CB1DA8A6946186ACA
:105D2000A04703B0F0BD3046FFF7ACFFA368A76003
:105D3000009323690193E3691BB1E28A6946206AF3
:105D400098473046FFF7B4FF0446D2E731B1837875
:105D5000012B03D100210C3000F033BB43F2215062
:105D600070472DE9F0470D46044600B9FEE701B93A
:105D7000FEE7EFF3108772B64A68D0F8BC30D0F86F
:105D8000B81013448B4280F09080D0F8BC3043F2BE
:105D90002358D0F8B4002968184422F0ABF8D4F89E
:105DA000BC306A681344C4F8BC3028E0D4F8BC2086
:105DB0002E68501CC4F8BC00D4F8B400F65C8654BD
:105DC000D4F8BC20D4F8B800824201D3C4F8BC1087
:105DD000D4F8BC60D4F8C02096420CD1D4F8C020CE
:105DE0000132C4F8C020D4F8C020904201D8C4F8D1
:105DF000C01043F2265801336A689A42D6D8D4F8C4
:105E0000BC30D4F8B820D4F8C06013449B1BB3FB5B
:105E1000F2F602FB163663680BB363689B68F3B156
:105E20006368DA6863681B699A420CD96368002169
:105E3000DB688A46626812699B1AB34228BF334600
:105E40008B4237D8F61A6368DA6863681B699A422E
:105E500005D863681B7D002B51D16268936061682F
:105E600032462046FFF772FF76B10023C5E90036BF
:105E700063684BB16368DB6933B16368424660684D
:105E80002946DB69006A9847228848F641739A429E
:105E900007D1D4F8B82020466168013A921BFFF779
:105EA00055FF87F31088BDE8F087002343F223589D
:105EB0001946A1E7D4F8C0E0D4F804906268D2F89B
:105EC00010C0D4F8B42012F80EE0D9F8082002F877
:105ED0000CE0D4F8C020D4F8B8000132C4F8C020D7
:105EE000D4F804C0DCF810200132CCF81020D4F82B
:105EF000C020824201D3C4F8C0A00131A0E763688A
:105F000000222046DA82FFF7E9FEA8E72DE9F041FA
:105F10000E461746054600B9FEE701B9FEE700F157
:105F2000C4084046FFF7C4FE0446B8B14046FFF738
:105F3000A9FE2846FFF7BEFE7368E7822361237D32
:105F4000012B09D1214605F1D000FFF780FE28463C
:105F5000BDE8F041FFF7C2BE0023A360BDE8F081B9
:105F6000704700002DE9F8431E46044600B9FEE7DD
:105F700001B9FEE702B9FEE7856905B9FEE7406AA7
:105F8000224B9842FDD1012E02D1E369002BFCD0B7
:105F9000EFF3108872B6A3682BB188F3108843F230
:105FA0002250BDE8F88305F1C409E260A1602361D5
:105FB00048462675FFF77CFE214607464846FFF710
:105FC00046FE88F3108847B12EB905F10C06E26849
:105FD00023699A4207D80020E3E72846FFF76AFEC4
:105FE0000028F1D0DDE7EFF305835BB1EFF3108715
:105FF00072B6AB78012B02D1304600F0F8F987F386
:106000001088E4E70120FFF7ABFFE0E75457BBAA95
:10601000704700002DE9F341089D0E461F460446D7
:1060200000B9FEE701B9FEE702B9FEE7806900B9F1
:10603000FEE7616A514B9942FDD1012F02D1E3691C
:10604000002BFCD0EFF3108872B6A16831B188F351
:10605000108843F2225002B0BDE8F081012AE260CC
:10606000A6602161277527D1D0F8BC20D0F8C030B8
:106070009A4218D0D0F8C0202369D0F8B4C003F1F8
:10608000010EC4F810E01CF80220F254D0F8C03021
:106090000133C0F8C030D0F8B830D0F8C0209A42F0
:1060A00001D3C0F8C010002D47D0236900202B6019
:1060B000A06088F31088CEE7D0F8B8E0D0F8BC3004
:1060C000D0F8C0C073442161A3EB0C03B3FBFEFC0A
:1060D0000EFB1C338E469A4228BF1A462369934210
:1060E00011D3D0F8B830D0F8BC20D0F8C0101A4482
:1060F000521AB2FBF3F103FB1122013B21469A1A1B
:10610000FFF724FECFE7D0F8C030D0F8B410D4F8B1
:1061100010C0CB5C06F80C30D0F8C030D0F8B81006
:106120000133C0F8C030D0F8C0308B4201D3C0F882
:10613000C0E0236901332361D0E72269E3689A4212
:1061400010D3A56088F31088012F0FD1E3690BB934
:10615000002080E722696946206A01922A4600965B
:106160009847F5E788F31088002FF1D1E26823699A
:106170009A42EDD90120FFF74BFFF7E74452AABB43
:1061800070B504460D4601B9FEE700B9FEE70B689D
:1061900003B9FEE74B6803B9FEE74FF492720021A2
:1061A00021F0D0FE6B8923802B7AA370012B2A6803
:1061B000C4F8B4206A68C4F8B82013D104F10C06FE
:1061C000E968304600F0C4F8054648B92246074958
:1061D000304600F000F922460549304600F001F94A
:1061E000284670BD43F22155FAE700BF0D5F00005D
:1061F000635D000038B50D46044600B9FEE701B9FD
:10620000FEE7EFF3108272B683680133836082F396
:10621000108848F6417302889A4202D188610020B2
:1062200038BD2C220021284621F08CFE014BAC61A8
:106230006B62F4E75457BBAAF8B50C46054600B9A3
:10624000FEE701B9FEE7028848F641739A4202D19F
:1062500088610020F8BDEFF3108772B6466866B912
:1062600041602C223146204621F06CFE044B304622
:10627000A561636287F31088ECE743F22250F9E7E7
:106280004452AABB0123FFF76DBE002307B500935C
:106290000123FFF7BFFE03B05DF804FB10B500B9A2
:1062A000FEE7446A034B9C42FDD1C0E9071200207F
:1062B00010BD00BF5457BBAA10B500B9FEE7446A31
:1062C000034B9C42FDD1C0E90712002010BD00BF66
:1062D0004452AABB13B5144602B9FEE742F6AC73AA
